{
  "address": "0x0dBacfBdC32CE8304925A78F0fA857328769E9F1",
  "abi": [
    {
      "inputs": [
        {
          "internalType": "address",
          "name": "vrfCoordinatorV2",
          "type": "address"
        },
        {
          "internalType": "bytes32",
          "name": "gasLane",
          "type": "bytes32"
        },
        {
          "internalType": "uint64",
          "name": "subscriptionId",
          "type": "uint64"
        },
        {
          "internalType": "uint32",
          "name": "callbackGasLimit",
          "type": "uint32"
        },
        {
          "internalType": "uint64",
          "name": "leastEthToSend",
          "type": "uint64"
        },
        {
          "internalType": "uint256",
          "name": "randomNumberRange",
          "type": "uint256"
        },
        {
          "internalType": "uint256",
          "name": "numberOfTrials",
          "type": "uint256"
        }
      ],
      "stateMutability": "payable",
      "type": "constructor"
    },
    {
      "inputs": [],
      "name": "Guess_GameGotNoMoney",
      "type": "error"
    },
    {
      "inputs": [],
      "name": "Guess_GameStartedAlready",
      "type": "error"
    },
    {
      "inputs": [],
      "name": "Guess__FundYourWalletPlease",
      "type": "error"
    },
    {
      "inputs": [],
      "name": "Guess__GameFundFailedSendEnough",
      "type": "error"
    },
    {
      "inputs": [],
      "name": "Guess__NoBalanceToWithdraw",
      "type": "error"
    },
    {
      "inputs": [],
      "name": "Guess__NotEnoughEthEntered",
      "type": "error"
    },
    {
      "inputs": [],
      "name": "Guess__PleaseStartANewGameYouLostTheGameAlready",
      "type": "error"
    },
    {
      "inputs": [],
      "name": "Guess__WalletFundFailedSendEnough",
      "type": "error"
    },
    {
      "inputs": [
        {
          "internalType": "address",
          "name": "have",
          "type": "address"
        },
        {
          "internalType": "address",
          "name": "want",
          "type": "address"
        }
      ],
      "name": "OnlyCoordinatorCanFulfill",
      "type": "error"
    },
    {
      "anonymous": false,
      "inputs": [
        {
          "indexed": true,
          "internalType": "address",
          "name": "owner",
          "type": "address"
        },
        {
          "indexed": true,
          "internalType": "uint256",
          "name": "amountOwnerFunded",
          "type": "uint256"
        }
      ],
      "name": "GameFunded",
      "type": "event"
    },
    {
      "anonymous": false,
      "inputs": [
        {
          "indexed": true,
          "internalType": "address",
          "name": "gamer",
          "type": "address"
        },
        {
          "indexed": true,
          "internalType": "uint256",
          "name": "amountGamerFunded",
          "type": "uint256"
        }
      ],
      "name": "GamerWalletFunded",
      "type": "event"
    },
    {
      "anonymous": false,
      "inputs": [
        {
          "indexed": true,
          "internalType": "uint256",
          "name": "requestId",
          "type": "uint256"
        }
      ],
      "name": "RequestRaffleWinner",
      "type": "event"
    },
    {
      "anonymous": false,
      "inputs": [
        {
          "indexed": true,
          "internalType": "address",
          "name": "gamer",
          "type": "address"
        },
        {
          "indexed": true,
          "internalType": "uint256",
          "name": "amountWithdrawn",
          "type": "uint256"
        }
      ],
      "name": "WalletFundsWithdrawn",
      "type": "event"
    },
    {
      "stateMutability": "payable",
      "type": "fallback"
    },
    {
      "inputs": [],
      "name": "DonateToGame",
      "outputs": [],
      "stateMutability": "payable",
      "type": "function"
    },
    {
      "inputs": [
        {
          "internalType": "uint256",
          "name": "",
          "type": "uint256"
        }
      ],
      "name": "allTimeLosers",
      "outputs": [
        {
          "internalType": "address",
          "name": "",
          "type": "address"
        }
      ],
      "stateMutability": "view",
      "type": "function"
    },
    {
      "inputs": [
        {
          "internalType": "uint256",
          "name": "",
          "type": "uint256"
        }
      ],
      "name": "allTimeWinners",
      "outputs": [
        {
          "internalType": "address",
          "name": "",
          "type": "address"
        }
      ],
      "stateMutability": "view",
      "type": "function"
    },
    {
      "inputs": [],
      "name": "fundGameWallet",
      "outputs": [],
      "stateMutability": "payable",
      "type": "function"
    },
    {
      "inputs": [
        {
          "internalType": "address",
          "name": "",
          "type": "address"
        }
      ],
      "name": "gamersWalletBalance",
      "outputs": [
        {
          "internalType": "uint256",
          "name": "",
          "type": "uint256"
        }
      ],
      "stateMutability": "view",
      "type": "function"
    },
    {
      "inputs": [],
      "name": "getCallCount",
      "outputs": [
        {
          "internalType": "uint256",
          "name": "",
          "type": "uint256"
        }
      ],
      "stateMutability": "view",
      "type": "function"
    },
    {
      "inputs": [],
      "name": "getGameBalance",
      "outputs": [
        {
          "internalType": "uint256",
          "name": "",
          "type": "uint256"
        }
      ],
      "stateMutability": "view",
      "type": "function"
    },
    {
      "inputs": [],
      "name": "getGamersWalletBalance",
      "outputs": [
        {
          "internalType": "uint256",
          "name": "",
          "type": "uint256"
        }
      ],
      "stateMutability": "view",
      "type": "function"
    },
    {
      "inputs": [],
      "name": "getMyGameState",
      "outputs": [
        {
          "internalType": "enum Guess.playerGameState",
          "name": "",
          "type": "uint8"
        }
      ],
      "stateMutability": "view",
      "type": "function"
    },
    {
      "inputs": [],
      "name": "getNumberOfTrials",
      "outputs": [
        {
          "internalType": "uint256",
          "name": "",
          "type": "uint256"
        }
      ],
      "stateMutability": "view",
      "type": "function"
    },
    {
      "inputs": [],
      "name": "getNumberOfTrialsUsed",
      "outputs": [
        {
          "internalType": "uint256",
          "name": "",
          "type": "uint256"
        }
      ],
      "stateMutability": "view",
      "type": "function"
    },
    {
      "inputs": [],
      "name": "getOwner",
      "outputs": [
        {
          "internalType": "address",
          "name": "",
          "type": "address"
        }
      ],
      "stateMutability": "view",
      "type": "function"
    },
    {
      "inputs": [
        {
          "internalType": "uint256",
          "name": "requestId",
          "type": "uint256"
        },
        {
          "internalType": "uint256[]",
          "name": "randomWords",
          "type": "uint256[]"
        }
      ],
      "name": "rawFulfillRandomWords",
      "outputs": [],
      "stateMutability": "nonpayable",
      "type": "function"
    },
    {
      "inputs": [
        {
          "internalType": "bytes",
          "name": "",
          "type": "bytes"
        }
      ],
      "name": "startGame",
      "outputs": [],
      "stateMutability": "payable",
      "type": "function"
    },
    {
      "inputs": [
        {
          "internalType": "uint256",
          "name": "randomNumber",
          "type": "uint256"
        }
      ],
      "name": "verifyRandomNumber",
      "outputs": [
        {
          "internalType": "bool",
          "name": "",
          "type": "bool"
        }
      ],
      "stateMutability": "nonpayable",
      "type": "function"
    },
    {
      "inputs": [],
      "name": "withdrawWalletFunds",
      "outputs": [],
      "stateMutability": "nonpayable",
      "type": "function"
    },
    {
      "stateMutability": "payable",
      "type": "receive"
    }
  ],
  "transactionHash": "0x11946cd340a4084eeda2182c5011b907b5de453d2be70a8c03c3d7c87474f59b",
  "args": [
    "0x8453015b30026a8e30aBBA1478691bf8b6cC8ccF",
    "0x474e34a077df58807dbe9c96d3c009b23b3c6d0cce433e59bbf5b34f823bc56c",
    "1",
    "500000",
    "100000000000000000",
    "10",
    "3"
  ],
  "numDeployments": 1,
  "solcInputHash": "39e717323843043cc6221d91c9a3725b",
  "bytecode": "0x61016060405260036000806101000a81548161ffff021916908361ffff1602179055506001600060026101000a81548163ffffffff021916908363ffffffff1602179055506040516200225338038062002253833981810160405281019062000069919062000339565b868073ffffffffffffffffffffffffffffffffffffffff1660808173ffffffffffffffffffffffffffffffffffffffff16815250505060003411620000da576040517f0f87291600000000000000000000000000000000000000000000000000000000815260040160405180910390fd5b8673ffffffffffffffffffffffffffffffffffffffff1660a08173ffffffffffffffffffffffffffffffffffffffff16815250508560c081815250508467ffffffffffffffff1660e08167ffffffffffffffff16815250508363ffffffff166101008163ffffffff16815250508267ffffffffffffffff16610120818152505033600060066101000a81548173ffffffffffffffffffffffffffffffffffffffff021916908373ffffffffffffffffffffffffffffffffffffffff160217905550816101408181525050806001819055503460026000828254620001bf91906200041b565b925050819055505050505050505062000456565b600080fd5b600073ffffffffffffffffffffffffffffffffffffffff82169050919050565b60006200020582620001d8565b9050919050565b6200021781620001f8565b81146200022357600080fd5b50565b60008151905062000237816200020c565b92915050565b6000819050919050565b62000252816200023d565b81146200025e57600080fd5b50565b600081519050620002728162000247565b92915050565b600067ffffffffffffffff82169050919050565b620002978162000278565b8114620002a357600080fd5b50565b600081519050620002b7816200028c565b92915050565b600063ffffffff82169050919050565b620002d881620002bd565b8114620002e457600080fd5b50565b600081519050620002f881620002cd565b92915050565b6000819050919050565b6200031381620002fe565b81146200031f57600080fd5b50565b600081519050620003338162000308565b92915050565b600080600080600080600060e0888a0312156200035b576200035a620001d3565b5b60006200036b8a828b0162000226565b97505060206200037e8a828b0162000261565b9650506040620003918a828b01620002a6565b9550506060620003a48a828b01620002e7565b9450506080620003b78a828b01620002a6565b93505060a0620003ca8a828b0162000322565b92505060c0620003dd8a828b0162000322565b91505092959891949750929550565b7f4e487b7100000000000000000000000000000000000000000000000000000000600052601160045260246000fd5b60006200042882620002fe565b91506200043583620002fe565b925082820190508082111562000450576200044f620003ec565b5b92915050565b60805160a05160c05160e051610100516101205161014051611d9b620004b8600039600061151901526000610ed0015260006112a30152600061127301526000611252015260006112160152600081816105e6015261063a0152611d9b6000f3fe6080604052600436106100f75760003560e01c8063a96b2dc01161008a578063dc2ac12911610059578063dc2ac12914610313578063e899466f1461032f578063f2d8dda314610339578063fc90eaac1461037657610106565b8063a96b2dc014610255578063aa488d7e14610280578063ba5cf4b6146102bd578063c574d156146102e857610106565b806322112ede116100c657806322112ede1461018557806324662e25146101c2578063893d20e8146101ed578063902e6dab1461021857610106565b80630fe5155b146101105780631cd9ad9b1461013b5780631fb3bc63146101455780631fe543e31461015c57610106565b36610106576101046103a1565b005b61010e6103a1565b005b34801561011c57600080fd5b50610125610400565b6040516101329190611621565b60405180910390f35b6101436103a1565b005b34801561015157600080fd5b5061015a610454565b005b34801561016857600080fd5b50610183600480360381019061017e91906117df565b6105e4565b005b34801561019157600080fd5b506101ac60048036038101906101a7919061183b565b6106a4565b6040516101b991906118a9565b60405180910390f35b3480156101ce57600080fd5b506101d76106e3565b6040516101e491906118d3565b60405180910390f35b3480156101f957600080fd5b5061020261072a565b60405161020f91906118a9565b60405180910390f35b34801561022457600080fd5b5061023f600480360381019061023a919061191a565b610753565b60405161024c91906118d3565b60405180910390f35b34801561026157600080fd5b5061026a61076b565b60405161027791906118d3565b60405180910390f35b34801561028c57600080fd5b506102a760048036038101906102a2919061183b565b6107b2565b6040516102b49190611962565b60405180910390f35b3480156102c957600080fd5b506102d2610e7d565b6040516102df91906118d3565b60405180910390f35b3480156102f457600080fd5b506102fd610ec4565b60405161030a91906118d3565b60405180910390f35b61032d600480360381019061032891906119d8565b610ece565b005b6103376113be565b005b34801561034557600080fd5b50610360600480360381019061035b919061183b565b611494565b60405161036d91906118a9565b60405180910390f35b34801561038257600080fd5b5061038b6114d3565b60405161039891906118d3565b60405180910390f35b34600260008282546103b39190611a54565b92505081905550343373ffffffffffffffffffffffffffffffffffffffff167f5c963fd7fde519af29d56159e6e3e18db4e5d3e4716c39c87958cf9e4862ed5860405160405180910390a3565b6000600860003373ffffffffffffffffffffffffffffffffffffffff1673ffffffffffffffffffffffffffffffffffffffff16815260200190815260200160002060009054906101000a900460ff16905090565b6000600360003373ffffffffffffffffffffffffffffffffffffffff1673ffffffffffffffffffffffffffffffffffffffff16815260200190815260200160002054116104cd576040517f644d533400000000000000000000000000000000000000000000000000000000815260040160405180910390fd5b6000600360003373ffffffffffffffffffffffffffffffffffffffff1673ffffffffffffffffffffffffffffffffffffffff1681526020019081526020016000205490506000600360003373ffffffffffffffffffffffffffffffffffffffff1673ffffffffffffffffffffffffffffffffffffffff168152602001908152602001600020819055503373ffffffffffffffffffffffffffffffffffffffff166108fc829081150290604051600060405180830381858888f1935050505015801561059c573d6000803e3d6000fd5b50803373ffffffffffffffffffffffffffffffffffffffff167fd8983cf18affd47d2b124228c0ed45ba546e64e3df3ba503ae24917cc9fa80f360405160405180910390a350565b7f000000000000000000000000000000000000000000000000000000000000000073ffffffffffffffffffffffffffffffffffffffff163373ffffffffffffffffffffffffffffffffffffffff161461069657337f00000000000000000000000000000000000000000000000000000000000000006040517f1cf993f400000000000000000000000000000000000000000000000000000000815260040161068d929190611a88565b60405180910390fd5b6106a082826114dd565b5050565b600b81815481106106b457600080fd5b906000526020600020016000915054906101000a900473ffffffffffffffffffffffffffffffffffffffff1681565b6000600960003373ffffffffffffffffffffffffffffffffffffffff1673ffffffffffffffffffffffffffffffffffffffff16815260200190815260200160002054905090565b60008060069054906101000a900473ffffffffffffffffffffffffffffffffffffffff16905090565b60036020528060005260406000206000915090505481565b6000600460003373ffffffffffffffffffffffffffffffffffffffff1673ffffffffffffffffffffffffffffffffffffffff16815260200190815260200160002054905090565b60008060018111156107c7576107c66115aa565b5b600860003373ffffffffffffffffffffffffffffffffffffffff1673ffffffffffffffffffffffffffffffffffffffff16815260200190815260200160002060009054906101000a900460ff166001811115610826576108256115aa565b5b0361085d576040517f509360dd00000000000000000000000000000000000000000000000000000000815260040160405180910390fd5b600460003373ffffffffffffffffffffffffffffffffffffffff1673ffffffffffffffffffffffffffffffffffffffff16815260200190815260200160002060008154809291906108ad90611ab1565b9190505550600960003373ffffffffffffffffffffffffffffffffffffffff1673ffffffffffffffffffffffffffffffffffffffff168152602001908152602001600020600081548092919061090290611af9565b91905055506000600660003373ffffffffffffffffffffffffffffffffffffffff1673ffffffffffffffffffffffffffffffffffffffff16815260200190815260200160002054831490508015610bbe576000600660003373ffffffffffffffffffffffffffffffffffffffff1673ffffffffffffffffffffffffffffffffffffffff168152602001908152602001600020819055506000600860003373ffffffffffffffffffffffffffffffffffffffff1673ffffffffffffffffffffffffffffffffffffffff16815260200190815260200160002060006101000a81548160ff021916908360018111156109fb576109fa6115aa565b5b02179055506000600560003373ffffffffffffffffffffffffffffffffffffffff1673ffffffffffffffffffffffffffffffffffffffff1681526020019081526020016000205490506000600560003373ffffffffffffffffffffffffffffffffffffffff1673ffffffffffffffffffffffffffffffffffffffff168152602001908152602001600020819055506000600460003373ffffffffffffffffffffffffffffffffffffffff1673ffffffffffffffffffffffffffffffffffffffff16815260200190815260200160002081905550600a339080600181540180825580915050600190039060005260206000200160009091909190916101000a81548173ffffffffffffffffffffffffffffffffffffffff021916908373ffffffffffffffffffffffffffffffffffffffff160217905550600281610b3e9190611b22565b600360003373ffffffffffffffffffffffffffffffffffffffff1673ffffffffffffffffffffffffffffffffffffffff1681526020019081526020016000206000828254610b8c9190611a54565b92505081905550600281610ba09190611b22565b60026000828254610bb19190611b64565b9250508190555050610e74565b80610e7357600154600460003373ffffffffffffffffffffffffffffffffffffffff1673ffffffffffffffffffffffffffffffffffffffff1681526020019081526020016000205403610e72576000600660003373ffffffffffffffffffffffffffffffffffffffff1673ffffffffffffffffffffffffffffffffffffffff168152602001908152602001600020819055506000600860003373ffffffffffffffffffffffffffffffffffffffff1673ffffffffffffffffffffffffffffffffffffffff16815260200190815260200160002060006101000a81548160ff02191690836001811115610cb357610cb26115aa565b5b02179055506000600560003373ffffffffffffffffffffffffffffffffffffffff1673ffffffffffffffffffffffffffffffffffffffff1681526020019081526020016000205490506000600560003373ffffffffffffffffffffffffffffffffffffffff1673ffffffffffffffffffffffffffffffffffffffff168152602001908152602001600020819055506000600460003373ffffffffffffffffffffffffffffffffffffffff1673ffffffffffffffffffffffffffffffffffffffff16815260200190815260200160002081905550600b339080600181540180825580915050600190039060005260206000200160009091909190916101000a81548173ffffffffffffffffffffffffffffffffffffffff021916908373ffffffffffffffffffffffffffffffffffffffff160217905550600281610df69190611bc7565b600360003373ffffffffffffffffffffffffffffffffffffffff1673ffffffffffffffffffffffffffffffffffffffff1681526020019081526020016000206000828254610e449190611a54565b92505081905550600281610e589190611bc7565b60026000828254610e699190611a54565b92505081905550505b5b5b80915050919050565b6000600360003373ffffffffffffffffffffffffffffffffffffffff1673ffffffffffffffffffffffffffffffffffffffff16815260200190815260200160002054905090565b6000600254905090565b7f0000000000000000000000000000000000000000000000000000000000000000341015610f28576040517f7336562800000000000000000000000000000000000000000000000000000000815260040160405180910390fd5b600360003373ffffffffffffffffffffffffffffffffffffffff1673ffffffffffffffffffffffffffffffffffffffff16815260200190815260200160002054341115610fa1576040517fe79d7a4e00000000000000000000000000000000000000000000000000000000815260040160405180910390fd5b60006002541480610fbf5750600234610fba9190611b22565b600254105b15610ff6576040517f321aa5b000000000000000000000000000000000000000000000000000000000815260040160405180910390fd5b600180811115611009576110086115aa565b5b600860003373ffffffffffffffffffffffffffffffffffffffff1673ffffffffffffffffffffffffffffffffffffffff16815260200190815260200160002060009054906101000a900460ff166001811115611068576110676115aa565b5b0361109f576040517f2ab870bb00000000000000000000000000000000000000000000000000000000815260040160405180910390fd5b600154600960003373ffffffffffffffffffffffffffffffffffffffff1673ffffffffffffffffffffffffffffffffffffffff168152602001908152602001600020819055506001600860003373ffffffffffffffffffffffffffffffffffffffff1673ffffffffffffffffffffffffffffffffffffffff16815260200190815260200160002060006101000a81548160ff02191690836001811115611148576111476115aa565b5b021790555034600360003373ffffffffffffffffffffffffffffffffffffffff1673ffffffffffffffffffffffffffffffffffffffff168152602001908152602001600020600082825461119c9190611b64565b9250508190555034600260008282546111b59190611a54565b9250508190555034600560003373ffffffffffffffffffffffffffffffffffffffff1673ffffffffffffffffffffffffffffffffffffffff168152602001908152602001600020600082825461120b9190611a54565b9250508190555060007f000000000000000000000000000000000000000000000000000000000000000073ffffffffffffffffffffffffffffffffffffffff16635d3b1d307f00000000000000000000000000000000000000000000000000000000000000007f000000000000000000000000000000000000000000000000000000000000000060008054906101000a900461ffff167f0000000000000000000000000000000000000000000000000000000000000000600060029054906101000a900463ffffffff166040518663ffffffff1660e01b81526004016112f5959493929190611c70565b6020604051808303816000875af1158015611314573d6000803e3d6000fd5b505050506040513d601f19601f820116820180604052508101906113389190611cd8565b9050336007600083815260200190815260200160002060006101000a81548173ffffffffffffffffffffffffffffffffffffffff021916908373ffffffffffffffffffffffffffffffffffffffff160217905550807fde6349b018d6c03d837b67d9a198a6ba4842546f2295fe963fae141e5dbaef8160405160405180910390a2505050565b600034116113f8576040517fbf6fa0fa00000000000000000000000000000000000000000000000000000000815260040160405180910390fd5b34600360003373ffffffffffffffffffffffffffffffffffffffff1673ffffffffffffffffffffffffffffffffffffffff16815260200190815260200160002060008282546114479190611a54565b92505081905550343373ffffffffffffffffffffffffffffffffffffffff167f2cde8fb4822495d9efe0e5fa111675f127ce41e30c80620d46cc1a606ab0384760405160405180910390a3565b600a81815481106114a457600080fd5b906000526020600020016000915054906101000a900473ffffffffffffffffffffffffffffffffffffffff1681565b6000600154905090565b60006007600084815260200190815260200160002060009054906101000a900473ffffffffffffffffffffffffffffffffffffffff16905060007f00000000000000000000000000000000000000000000000000000000000000008360008151811061154c5761154b611d05565b5b602002602001015161155e9190611d34565b905080600660008473ffffffffffffffffffffffffffffffffffffffff1673ffffffffffffffffffffffffffffffffffffffff1681526020019081526020016000208190555050505050565b7f4e487b7100000000000000000000000000000000000000000000000000000000600052602160045260246000fd5b600281106115ea576115e96115aa565b5b50565b60008190506115fb826115d9565b919050565b600061160b826115ed565b9050919050565b61161b81611600565b82525050565b60006020820190506116366000830184611612565b92915050565b6000604051905090565b600080fd5b600080fd5b6000819050919050565b61166381611650565b811461166e57600080fd5b50565b6000813590506116808161165a565b92915050565b600080fd5b6000601f19601f8301169050919050565b7f4e487b7100000000000000000000000000000000000000000000000000000000600052604160045260246000fd5b6116d48261168b565b810181811067ffffffffffffffff821117156116f3576116f261169c565b5b80604052505050565b600061170661163c565b905061171282826116cb565b919050565b600067ffffffffffffffff8211156117325761173161169c565b5b602082029050602081019050919050565b600080fd5b600061175b61175684611717565b6116fc565b9050808382526020820190506020840283018581111561177e5761177d611743565b5b835b818110156117a757806117938882611671565b845260208401935050602081019050611780565b5050509392505050565b600082601f8301126117c6576117c5611686565b5b81356117d6848260208601611748565b91505092915050565b600080604083850312156117f6576117f5611646565b5b600061180485828601611671565b925050602083013567ffffffffffffffff8111156118255761182461164b565b5b611831858286016117b1565b9150509250929050565b60006020828403121561185157611850611646565b5b600061185f84828501611671565b91505092915050565b600073ffffffffffffffffffffffffffffffffffffffff82169050919050565b600061189382611868565b9050919050565b6118a381611888565b82525050565b60006020820190506118be600083018461189a565b92915050565b6118cd81611650565b82525050565b60006020820190506118e860008301846118c4565b92915050565b6118f781611888565b811461190257600080fd5b50565b600081359050611914816118ee565b92915050565b6000602082840312156119305761192f611646565b5b600061193e84828501611905565b91505092915050565b60008115159050919050565b61195c81611947565b82525050565b60006020820190506119776000830184611953565b92915050565b600080fd5b60008083601f84011261199857611997611686565b5b8235905067ffffffffffffffff8111156119b5576119b461197d565b5b6020830191508360018202830111156119d1576119d0611743565b5b9250929050565b600080602083850312156119ef576119ee611646565b5b600083013567ffffffffffffffff811115611a0d57611a0c61164b565b5b611a1985828601611982565b92509250509250929050565b7f4e487b7100000000000000000000000000000000000000000000000000000000600052601160045260246000fd5b6000611a5f82611650565b9150611a6a83611650565b9250828201905080821115611a8257611a81611a25565b5b92915050565b6000604082019050611a9d600083018561189a565b611aaa602083018461189a565b9392505050565b6000611abc82611650565b91507fffffffffffffffffffffffffffffffffffffffffffffffffffffffffffffffff8203611aee57611aed611a25565b5b600182019050919050565b6000611b0482611650565b915060008203611b1757611b16611a25565b5b600182039050919050565b6000611b2d82611650565b9150611b3883611650565b9250828202611b4681611650565b91508282048414831517611b5d57611b5c611a25565b5b5092915050565b6000611b6f82611650565b9150611b7a83611650565b9250828203905081811115611b9257611b91611a25565b5b92915050565b7f4e487b7100000000000000000000000000000000000000000000000000000000600052601260045260246000fd5b6000611bd282611650565b9150611bdd83611650565b925082611bed57611bec611b98565b5b828204905092915050565b6000819050919050565b611c0b81611bf8565b82525050565b600067ffffffffffffffff82169050919050565b611c2e81611c11565b82525050565b600061ffff82169050919050565b611c4b81611c34565b82525050565b600063ffffffff82169050919050565b611c6a81611c51565b82525050565b600060a082019050611c856000830188611c02565b611c926020830187611c25565b611c9f6040830186611c42565b611cac6060830185611c61565b611cb96080830184611c61565b9695505050505050565b600081519050611cd28161165a565b92915050565b600060208284031215611cee57611ced611646565b5b6000611cfc84828501611cc3565b91505092915050565b7f4e487b7100000000000000000000000000000000000000000000000000000000600052603260045260246000fd5b6000611d3f82611650565b9150611d4a83611650565b925082611d5a57611d59611b98565b5b82820690509291505056fea26469706673582212201e04cd6522293116735a9f232e945374b960ca7fa8cf295f7192e7f34bd5eee364736f6c63430008120033",
  "devdoc": {
    "kind": "dev",
    "methods": {},
    "version": 1
  },
  "userdoc": {
    "kind": "user",
    "methods": {},
    "version": 1
  },
  "storageLayout": {
    "storage": [
      {
        "astId": 194,
        "contract": "contracts/Guess.sol:Guess",
        "label": "REQUEST_CONFIRMATIONS",
        "offset": 0,
        "slot": "0",
        "type": "t_uint16"
      },
      {
        "astId": 197,
        "contract": "contracts/Guess.sol:Guess",
        "label": "NUMWORDS",
        "offset": 2,
        "slot": "0",
        "type": "t_uint32"
      },
      {
        "astId": 199,
        "contract": "contracts/Guess.sol:Guess",
        "label": "owner",
        "offset": 6,
        "slot": "0",
        "type": "t_address"
      },
      {
        "astId": 205,
        "contract": "contracts/Guess.sol:Guess",
        "label": "i_numberOfTrials",
        "offset": 0,
        "slot": "1",
        "type": "t_uint256"
      },
      {
        "astId": 207,
        "contract": "contracts/Guess.sol:Guess",
        "label": "gameBalance",
        "offset": 0,
        "slot": "2",
        "type": "t_uint256"
      },
      {
        "astId": 233,
        "contract": "contracts/Guess.sol:Guess",
        "label": "gamersWalletBalance",
        "offset": 0,
        "slot": "3",
        "type": "t_mapping(t_address,t_uint256)"
      },
      {
        "astId": 237,
        "contract": "contracts/Guess.sol:Guess",
        "label": "callCount",
        "offset": 0,
        "slot": "4",
        "type": "t_mapping(t_address,t_uint256)"
      },
      {
        "astId": 241,
        "contract": "contracts/Guess.sol:Guess",
        "label": "gamers",
        "offset": 0,
        "slot": "5",
        "type": "t_mapping(t_address,t_uint256)"
      },
      {
        "astId": 245,
        "contract": "contracts/Guess.sol:Guess",
        "label": "i_luckyNumber",
        "offset": 0,
        "slot": "6",
        "type": "t_mapping(t_address,t_uint256)"
      },
      {
        "astId": 249,
        "contract": "contracts/Guess.sol:Guess",
        "label": "requestIdToAddress",
        "offset": 0,
        "slot": "7",
        "type": "t_mapping(t_uint256,t_address)"
      },
      {
        "astId": 254,
        "contract": "contracts/Guess.sol:Guess",
        "label": "gameState",
        "offset": 0,
        "slot": "8",
        "type": "t_mapping(t_address,t_enum(playerGameState)182)"
      },
      {
        "astId": 258,
        "contract": "contracts/Guess.sol:Guess",
        "label": "numberofTrialsUsed",
        "offset": 0,
        "slot": "9",
        "type": "t_mapping(t_address,t_uint256)"
      },
      {
        "astId": 261,
        "contract": "contracts/Guess.sol:Guess",
        "label": "allTimeWinners",
        "offset": 0,
        "slot": "10",
        "type": "t_array(t_address)dyn_storage"
      },
      {
        "astId": 264,
        "contract": "contracts/Guess.sol:Guess",
        "label": "allTimeLosers",
        "offset": 0,
        "slot": "11",
        "type": "t_array(t_address)dyn_storage"
      }
    ],
    "types": {
      "t_address": {
        "encoding": "inplace",
        "label": "address",
        "numberOfBytes": "20"
      },
      "t_array(t_address)dyn_storage": {
        "base": "t_address",
        "encoding": "dynamic_array",
        "label": "address[]",
        "numberOfBytes": "32"
      },
      "t_enum(playerGameState)182": {
        "encoding": "inplace",
        "label": "enum Guess.playerGameState",
        "numberOfBytes": "1"
      },
      "t_mapping(t_address,t_enum(playerGameState)182)": {
        "encoding": "mapping",
        "key": "t_address",
        "label": "mapping(address => enum Guess.playerGameState)",
        "numberOfBytes": "32",
        "value": "t_enum(playerGameState)182"
      },
      "t_mapping(t_address,t_uint256)": {
        "encoding": "mapping",
        "key": "t_address",
        "label": "mapping(address => uint256)",
        "numberOfBytes": "32",
        "value": "t_uint256"
      },
      "t_mapping(t_uint256,t_address)": {
        "encoding": "mapping",
        "key": "t_uint256",
        "label": "mapping(uint256 => address)",
        "numberOfBytes": "32",
        "value": "t_address"
      },
      "t_uint16": {
        "encoding": "inplace",
        "label": "uint16",
        "numberOfBytes": "2"
      },
      "t_uint256": {
        "encoding": "inplace",
        "label": "uint256",
        "numberOfBytes": "32"
      },
      "t_uint32": {
        "encoding": "inplace",
        "label": "uint32",
        "numberOfBytes": "4"
      }
    }
  }
}