{
  "_format": "hh-sol-artifact-1",
  "contractName": "Guess",
  "sourceName": "contracts/Guess.sol",
  "abi": [
    {
      "inputs": [
        {
          "internalType": "address",
          "name": "vrfCoordinatorV2",
          "type": "address"
        },
        {
          "internalType": "bytes32",
          "name": "gasLane",
          "type": "bytes32"
        },
        {
          "internalType": "uint64",
          "name": "subscriptionId",
          "type": "uint64"
        },
        {
          "internalType": "uint32",
          "name": "callbackGasLimit",
          "type": "uint32"
        },
        {
          "internalType": "uint64",
          "name": "leastEthToSend",
          "type": "uint64"
        },
        {
          "internalType": "uint256",
          "name": "randomNumberRange",
          "type": "uint256"
        },
        {
          "internalType": "uint256",
          "name": "numberOfTrials",
          "type": "uint256"
        }
      ],
      "stateMutability": "payable",
      "type": "constructor"
    },
    {
      "inputs": [],
      "name": "Guess_GameGotNoMoney",
      "type": "error"
    },
    {
      "inputs": [],
      "name": "Guess_GameStartedAlready",
      "type": "error"
    },
    {
      "inputs": [],
      "name": "Guess__BalanceNotUpToAmount",
      "type": "error"
    },
    {
      "inputs": [],
      "name": "Guess__FundYourWalletPlease",
      "type": "error"
    },
    {
      "inputs": [],
      "name": "Guess__GameFundFailedSendEnough",
      "type": "error"
    },
    {
      "inputs": [],
      "name": "Guess__GameHasStartedYouCannotChecktheLuckyNumber",
      "type": "error"
    },
    {
      "inputs": [],
      "name": "Guess__NoBalanceToWithdraw",
      "type": "error"
    },
    {
      "inputs": [],
      "name": "Guess__NotEnoughEthEntered",
      "type": "error"
    },
    {
      "inputs": [],
      "name": "Guess__NotOwner",
      "type": "error"
    },
    {
      "inputs": [],
      "name": "Guess__PleaseStartANewGameYouLostTheGameAlready",
      "type": "error"
    },
    {
      "inputs": [],
      "name": "Guess__ThereIsAnActivePlayerYouCannotWithdraw",
      "type": "error"
    },
    {
      "inputs": [],
      "name": "Guess__WalletFundFailedSendEnough",
      "type": "error"
    },
    {
      "inputs": [
        {
          "internalType": "address",
          "name": "have",
          "type": "address"
        },
        {
          "internalType": "address",
          "name": "want",
          "type": "address"
        }
      ],
      "name": "OnlyCoordinatorCanFulfill",
      "type": "error"
    },
    {
      "anonymous": false,
      "inputs": [
        {
          "indexed": true,
          "internalType": "address",
          "name": "owner",
          "type": "address"
        },
        {
          "indexed": true,
          "internalType": "uint256",
          "name": "amountOwnerFunded",
          "type": "uint256"
        }
      ],
      "name": "GameFunded",
      "type": "event"
    },
    {
      "anonymous": false,
      "inputs": [
        {
          "indexed": true,
          "internalType": "address",
          "name": "gamer",
          "type": "address"
        },
        {
          "indexed": true,
          "internalType": "uint256",
          "name": "amountGamerFunded",
          "type": "uint256"
        }
      ],
      "name": "GamerWalletFunded",
      "type": "event"
    },
    {
      "anonymous": false,
      "inputs": [
        {
          "indexed": true,
          "internalType": "uint256",
          "name": "requestId",
          "type": "uint256"
        }
      ],
      "name": "RequestRaffleWinner",
      "type": "event"
    },
    {
      "anonymous": false,
      "inputs": [
        {
          "indexed": true,
          "internalType": "address",
          "name": "gamer",
          "type": "address"
        },
        {
          "indexed": true,
          "internalType": "uint256",
          "name": "amountWithdrawn",
          "type": "uint256"
        }
      ],
      "name": "WalletFundsWithdrawn",
      "type": "event"
    },
    {
      "stateMutability": "payable",
      "type": "fallback"
    },
    {
      "inputs": [],
      "name": "DonateToGame",
      "outputs": [],
      "stateMutability": "payable",
      "type": "function"
    },
    {
      "inputs": [],
      "name": "fundGameWallet",
      "outputs": [],
      "stateMutability": "payable",
      "type": "function"
    },
    {
      "inputs": [
        {
          "internalType": "address",
          "name": "",
          "type": "address"
        }
      ],
      "name": "gamersWalletBalance",
      "outputs": [
        {
          "internalType": "uint256",
          "name": "",
          "type": "uint256"
        }
      ],
      "stateMutability": "view",
      "type": "function"
    },
    {
      "inputs": [],
      "name": "getCallCount",
      "outputs": [
        {
          "internalType": "uint256",
          "name": "",
          "type": "uint256"
        }
      ],
      "stateMutability": "view",
      "type": "function"
    },
    {
      "inputs": [],
      "name": "getGameBalance",
      "outputs": [
        {
          "internalType": "uint256",
          "name": "",
          "type": "uint256"
        }
      ],
      "stateMutability": "view",
      "type": "function"
    },
    {
      "inputs": [],
      "name": "getGamersWalletBalance",
      "outputs": [
        {
          "internalType": "uint256",
          "name": "",
          "type": "uint256"
        }
      ],
      "stateMutability": "view",
      "type": "function"
    },
    {
      "inputs": [],
      "name": "getLuckyNumber",
      "outputs": [
        {
          "internalType": "uint256",
          "name": "",
          "type": "uint256"
        }
      ],
      "stateMutability": "view",
      "type": "function"
    },
    {
      "inputs": [],
      "name": "getMyGameState",
      "outputs": [
        {
          "internalType": "enum Guess.playerGameState",
          "name": "",
          "type": "uint8"
        }
      ],
      "stateMutability": "view",
      "type": "function"
    },
    {
      "inputs": [],
      "name": "getNumberOfTrials",
      "outputs": [
        {
          "internalType": "uint256",
          "name": "",
          "type": "uint256"
        }
      ],
      "stateMutability": "view",
      "type": "function"
    },
    {
      "inputs": [],
      "name": "getNumberOfTrialsUsed",
      "outputs": [
        {
          "internalType": "uint256",
          "name": "",
          "type": "uint256"
        }
      ],
      "stateMutability": "view",
      "type": "function"
    },
    {
      "inputs": [],
      "name": "getOwner",
      "outputs": [
        {
          "internalType": "address",
          "name": "",
          "type": "address"
        }
      ],
      "stateMutability": "view",
      "type": "function"
    },
    {
      "inputs": [],
      "name": "getstartGameValue",
      "outputs": [
        {
          "internalType": "uint256",
          "name": "",
          "type": "uint256"
        }
      ],
      "stateMutability": "view",
      "type": "function"
    },
    {
      "inputs": [
        {
          "internalType": "uint256",
          "name": "requestId",
          "type": "uint256"
        },
        {
          "internalType": "uint256[]",
          "name": "randomWords",
          "type": "uint256[]"
        }
      ],
      "name": "rawFulfillRandomWords",
      "outputs": [],
      "stateMutability": "nonpayable",
      "type": "function"
    },
    {
      "inputs": [
        {
          "internalType": "bytes",
          "name": "",
          "type": "bytes"
        }
      ],
      "name": "startGame",
      "outputs": [],
      "stateMutability": "payable",
      "type": "function"
    },
    {
      "inputs": [
        {
          "internalType": "uint256",
          "name": "randomNumber",
          "type": "uint256"
        }
      ],
      "name": "verifyRandomNumber",
      "outputs": [
        {
          "internalType": "bool",
          "name": "",
          "type": "bool"
        }
      ],
      "stateMutability": "nonpayable",
      "type": "function"
    },
    {
      "inputs": [],
      "name": "withdrawGameBalance",
      "outputs": [],
      "stateMutability": "nonpayable",
      "type": "function"
    },
    {
      "inputs": [
        {
          "internalType": "uint256",
          "name": "amount",
          "type": "uint256"
        }
      ],
      "name": "withdrawWalletFunds",
      "outputs": [],
      "stateMutability": "nonpayable",
      "type": "function"
    },
    {
      "stateMutability": "payable",
      "type": "receive"
    }
  ],
  "bytecode": "0x61016060405260036000806101000a81548161ffff021916908361ffff1602179055506001600060026101000a81548163ffffffff021916908363ffffffff1602179055506040516200245d3803806200245d833981810160405281019062000069919062000339565b868073ffffffffffffffffffffffffffffffffffffffff1660808173ffffffffffffffffffffffffffffffffffffffff16815250505060003411620000da576040517f0f87291600000000000000000000000000000000000000000000000000000000815260040160405180910390fd5b8673ffffffffffffffffffffffffffffffffffffffff1660a08173ffffffffffffffffffffffffffffffffffffffff16815250508560c081815250508467ffffffffffffffff1660e08167ffffffffffffffff16815250508363ffffffff166101008163ffffffff16815250508267ffffffffffffffff16610120818152505033600060066101000a81548173ffffffffffffffffffffffffffffffffffffffff021916908373ffffffffffffffffffffffffffffffffffffffff160217905550816101408181525050806001819055503460026000828254620001bf91906200041b565b925050819055505050505050505062000456565b600080fd5b600073ffffffffffffffffffffffffffffffffffffffff82169050919050565b60006200020582620001d8565b9050919050565b6200021781620001f8565b81146200022357600080fd5b50565b60008151905062000237816200020c565b92915050565b6000819050919050565b62000252816200023d565b81146200025e57600080fd5b50565b600081519050620002728162000247565b92915050565b600067ffffffffffffffff82169050919050565b620002978162000278565b8114620002a357600080fd5b50565b600081519050620002b7816200028c565b92915050565b600063ffffffff82169050919050565b620002d881620002bd565b8114620002e457600080fd5b50565b600081519050620002f881620002cd565b92915050565b6000819050919050565b6200031381620002fe565b81146200031f57600080fd5b50565b600081519050620003338162000308565b92915050565b600080600080600080600060e0888a0312156200035b576200035a620001d3565b5b60006200036b8a828b0162000226565b97505060206200037e8a828b0162000261565b9650506040620003918a828b01620002a6565b9550506060620003a48a828b01620002e7565b9450506080620003b78a828b01620002a6565b93505060a0620003ca8a828b0162000322565b92505060c0620003dd8a828b0162000322565b91505092959891949750929550565b7f4e487b7100000000000000000000000000000000000000000000000000000000600052601160045260246000fd5b60006200042882620002fe565b91506200043583620002fe565b925082820190508082111562000450576200044f620003ec565b5b92915050565b60805160a05160c05160e051610100516101205161014051611fa5620004b8600039600061171701526000610fba015260006113f0015260006113c00152600061139f0152600061136301526000818161046601526104ba0152611fa56000f3fe6080604052600436106101025760003560e01c8063a96b2dc011610095578063c574d15611610064578063c574d1561461030a578063dc2ac12914610335578063e69f19cd14610351578063e899466f1461037c578063fc90eaac1461038657610111565b8063a96b2dc01461024e578063aa488d7e14610279578063b96c303b146102b6578063ba5cf4b6146102df57610111565b806355cc42b3116100d157806355cc42b3146101a45780637b9dda51146101bb578063893d20e8146101e6578063902e6dab1461021157610111565b80630fe5155b1461011b5780631cd9ad9b146101465780631fe543e31461015057806324662e251461017957610111565b366101115761010f6103b1565b005b6101196103b1565b005b34801561012757600080fd5b50610130610410565b60405161013d919061182b565b60405180910390f35b61014e6103b1565b005b34801561015c57600080fd5b50610177600480360381019061017291906119e9565b610464565b005b34801561018557600080fd5b5061018e610524565b60405161019b9190611a54565b60405180910390f35b3480156101b057600080fd5b506101b961056b565b005b3480156101c757600080fd5b506101d061067d565b6040516101dd9190611a54565b60405180910390f35b3480156101f257600080fd5b506101fb6106c4565b6040516102089190611ab0565b60405180910390f35b34801561021d57600080fd5b5061023860048036038101906102339190611af7565b6106ed565b6040516102459190611a54565b60405180910390f35b34801561025a57600080fd5b50610263610705565b6040516102709190611a54565b60405180910390f35b34801561028557600080fd5b506102a0600480360381019061029b9190611b24565b61074c565b6040516102ad9190611b6c565b60405180910390f35b3480156102c257600080fd5b506102dd60048036038101906102d89190611b24565b610da2565b005b3480156102eb57600080fd5b506102f4610f67565b6040516103019190611a54565b60405180910390f35b34801561031657600080fd5b5061031f610fae565b60405161032c9190611a54565b60405180910390f35b61034f600480360381019061034a9190611be2565b610fb8565b005b34801561035d57600080fd5b5061036661150b565b6040516103739190611a54565b60405180910390f35b6103846115fb565b005b34801561039257600080fd5b5061039b6116d1565b6040516103a89190611a54565b60405180910390f35b34600260008282546103c39190611c5e565b92505081905550343373ffffffffffffffffffffffffffffffffffffffff167f5c963fd7fde519af29d56159e6e3e18db4e5d3e4716c39c87958cf9e4862ed5860405160405180910390a3565b6000600860003373ffffffffffffffffffffffffffffffffffffffff1673ffffffffffffffffffffffffffffffffffffffff16815260200190815260200160002060009054906101000a900460ff16905090565b7f000000000000000000000000000000000000000000000000000000000000000073ffffffffffffffffffffffffffffffffffffffff163373ffffffffffffffffffffffffffffffffffffffff161461051657337f00000000000000000000000000000000000000000000000000000000000000006040517f1cf993f400000000000000000000000000000000000000000000000000000000815260040161050d929190611c92565b60405180910390fd5b61052082826116db565b5050565b6000600960003373ffffffffffffffffffffffffffffffffffffffff1673ffffffffffffffffffffffffffffffffffffffff16815260200190815260200160002054905090565b600060069054906101000a900473ffffffffffffffffffffffffffffffffffffffff1673ffffffffffffffffffffffffffffffffffffffff163373ffffffffffffffffffffffffffffffffffffffff16146105f2576040517f7f897af900000000000000000000000000000000000000000000000000000000815260040160405180910390fd5b6000600a805490501115610632576040517f176ef90700000000000000000000000000000000000000000000000000000000815260040160405180910390fd5b3373ffffffffffffffffffffffffffffffffffffffff166108fc6002549081150290604051600060405180830381858888f1935050505015801561067a573d6000803e3d6000fd5b50565b6000600560003373ffffffffffffffffffffffffffffffffffffffff1673ffffffffffffffffffffffffffffffffffffffff16815260200190815260200160002054905090565b60008060069054906101000a900473ffffffffffffffffffffffffffffffffffffffff16905090565b60036020528060005260406000206000915090505481565b6000600460003373ffffffffffffffffffffffffffffffffffffffff1673ffffffffffffffffffffffffffffffffffffffff16815260200190815260200160002054905090565b6000806001811115610761576107606117b4565b5b600860003373ffffffffffffffffffffffffffffffffffffffff1673ffffffffffffffffffffffffffffffffffffffff16815260200190815260200160002060009054906101000a900460ff1660018111156107c0576107bf6117b4565b5b036107f7576040517f509360dd00000000000000000000000000000000000000000000000000000000815260040160405180910390fd5b600460003373ffffffffffffffffffffffffffffffffffffffff1673ffffffffffffffffffffffffffffffffffffffff168152602001908152602001600020600081548092919061084790611cbb565b9190505550600960003373ffffffffffffffffffffffffffffffffffffffff1673ffffffffffffffffffffffffffffffffffffffff168152602001908152602001600020600081548092919061089c90611d03565b91905055506000600660003373ffffffffffffffffffffffffffffffffffffffff1673ffffffffffffffffffffffffffffffffffffffff16815260200190815260200160002054831490508015610b8b576000600860003373ffffffffffffffffffffffffffffffffffffffff1673ffffffffffffffffffffffffffffffffffffffff16815260200190815260200160002060006101000a81548160ff021916908360018111156109505761094f6117b4565b5b02179055506000600560003373ffffffffffffffffffffffffffffffffffffffff1673ffffffffffffffffffffffffffffffffffffffff1681526020019081526020016000205490506000600560003373ffffffffffffffffffffffffffffffffffffffff1673ffffffffffffffffffffffffffffffffffffffff168152602001908152602001600020819055506000600460003373ffffffffffffffffffffffffffffffffffffffff1673ffffffffffffffffffffffffffffffffffffffff1681526020019081526020016000208190555060005b600a80549050811015610afd573373ffffffffffffffffffffffffffffffffffffffff16600a8281548110610a5e57610a5d611d2c565b5b9060005260206000200160009054906101000a900473ffffffffffffffffffffffffffffffffffffffff1673ffffffffffffffffffffffffffffffffffffffff1603610aea57600a8181548110610ab857610ab7611d2c565b5b9060005260206000200160006101000a81549073ffffffffffffffffffffffffffffffffffffffff0219169055610afd565b8080610af590611cbb565b915050610a26565b50600281610b0b9190611d5b565b600360003373ffffffffffffffffffffffffffffffffffffffff1673ffffffffffffffffffffffffffffffffffffffff1681526020019081526020016000206000828254610b599190611c5e565b92505081905550600281610b6d9190611d5b565b60026000828254610b7e9190611d9d565b9250508190555050610d99565b80610d9857600154600460003373ffffffffffffffffffffffffffffffffffffffff1673ffffffffffffffffffffffffffffffffffffffff1681526020019081526020016000205403610d97576000600860003373ffffffffffffffffffffffffffffffffffffffff1673ffffffffffffffffffffffffffffffffffffffff16815260200190815260200160002060006101000a81548160ff02191690836001811115610c3b57610c3a6117b4565b5b02179055506000600560003373ffffffffffffffffffffffffffffffffffffffff1673ffffffffffffffffffffffffffffffffffffffff1681526020019081526020016000205490506000600560003373ffffffffffffffffffffffffffffffffffffffff1673ffffffffffffffffffffffffffffffffffffffff168152602001908152602001600020819055506000600460003373ffffffffffffffffffffffffffffffffffffffff1673ffffffffffffffffffffffffffffffffffffffff16815260200190815260200160002081905550600281610d1b9190611e00565b600360003373ffffffffffffffffffffffffffffffffffffffff1673ffffffffffffffffffffffffffffffffffffffff1681526020019081526020016000206000828254610d699190611c5e565b92505081905550600281610d7d9190611e00565b60026000828254610d8e9190611d9d565b92505081905550505b5b5b80915050919050565b6000600360003373ffffffffffffffffffffffffffffffffffffffff1673ffffffffffffffffffffffffffffffffffffffff1681526020019081526020016000205411610e1b576040517f644d533400000000000000000000000000000000000000000000000000000000815260040160405180910390fd5b600360003373ffffffffffffffffffffffffffffffffffffffff1673ffffffffffffffffffffffffffffffffffffffff16815260200190815260200160002054811115610e94576040517fedd65a2b00000000000000000000000000000000000000000000000000000000815260040160405180910390fd5b6000600360003373ffffffffffffffffffffffffffffffffffffffff1673ffffffffffffffffffffffffffffffffffffffff168152602001908152602001600020819055503373ffffffffffffffffffffffffffffffffffffffff166108fc829081150290604051600060405180830381858888f19350505050158015610f1f573d6000803e3d6000fd5b50803373ffffffffffffffffffffffffffffffffffffffff167fd8983cf18affd47d2b124228c0ed45ba546e64e3df3ba503ae24917cc9fa80f360405160405180910390a350565b6000600360003373ffffffffffffffffffffffffffffffffffffffff1673ffffffffffffffffffffffffffffffffffffffff16815260200190815260200160002054905090565b6000600254905090565b7f0000000000000000000000000000000000000000000000000000000000000000341015611012576040517f7336562800000000000000000000000000000000000000000000000000000000815260040160405180910390fd5b600360003373ffffffffffffffffffffffffffffffffffffffff1673ffffffffffffffffffffffffffffffffffffffff1681526020019081526020016000205434111561108b576040517fe79d7a4e00000000000000000000000000000000000000000000000000000000815260040160405180910390fd5b600060025414806110a957506002346110a49190611d5b565b600254105b156110e0576040517f321aa5b000000000000000000000000000000000000000000000000000000000815260040160405180910390fd5b6001808111156110f3576110f26117b4565b5b600860003373ffffffffffffffffffffffffffffffffffffffff1673ffffffffffffffffffffffffffffffffffffffff16815260200190815260200160002060009054906101000a900460ff166001811115611152576111516117b4565b5b03611189576040517f2ab870bb00000000000000000000000000000000000000000000000000000000815260040160405180910390fd5b600a339080600181540180825580915050600190039060005260206000200160009091909190916101000a81548173ffffffffffffffffffffffffffffffffffffffff021916908373ffffffffffffffffffffffffffffffffffffffff160217905550600154600960003373ffffffffffffffffffffffffffffffffffffffff1673ffffffffffffffffffffffffffffffffffffffff168152602001908152602001600020819055506001600860003373ffffffffffffffffffffffffffffffffffffffff1673ffffffffffffffffffffffffffffffffffffffff16815260200190815260200160002060006101000a81548160ff02191690836001811115611295576112946117b4565b5b021790555034600360003373ffffffffffffffffffffffffffffffffffffffff1673ffffffffffffffffffffffffffffffffffffffff16815260200190815260200160002060008282546112e99190611d9d565b9250508190555034600260008282546113029190611c5e565b9250508190555034600560003373ffffffffffffffffffffffffffffffffffffffff1673ffffffffffffffffffffffffffffffffffffffff16815260200190815260200160002060008282546113589190611c5e565b9250508190555060007f000000000000000000000000000000000000000000000000000000000000000073ffffffffffffffffffffffffffffffffffffffff16635d3b1d307f00000000000000000000000000000000000000000000000000000000000000007f000000000000000000000000000000000000000000000000000000000000000060008054906101000a900461ffff167f0000000000000000000000000000000000000000000000000000000000000000600060029054906101000a900463ffffffff166040518663ffffffff1660e01b8152600401611442959493929190611ea9565b6020604051808303816000875af1158015611461573d6000803e3d6000fd5b505050506040513d601f19601f820116820180604052508101906114859190611f11565b9050336007600083815260200190815260200160002060006101000a81548173ffffffffffffffffffffffffffffffffffffffff021916908373ffffffffffffffffffffffffffffffffffffffff160217905550807fde6349b018d6c03d837b67d9a198a6ba4842546f2295fe963fae141e5dbaef8160405160405180910390a2505050565b60006001808111156115205761151f6117b4565b5b600860003373ffffffffffffffffffffffffffffffffffffffff1673ffffffffffffffffffffffffffffffffffffffff16815260200190815260200160002060009054906101000a900460ff16600181111561157f5761157e6117b4565b5b036115b6576040517fbd4c46c200000000000000000000000000000000000000000000000000000000815260040160405180910390fd5b600660003373ffffffffffffffffffffffffffffffffffffffff1673ffffffffffffffffffffffffffffffffffffffff16815260200190815260200160002054905090565b60003411611635576040517fbf6fa0fa00000000000000000000000000000000000000000000000000000000815260040160405180910390fd5b34600360003373ffffffffffffffffffffffffffffffffffffffff1673ffffffffffffffffffffffffffffffffffffffff16815260200190815260200160002060008282546116849190611c5e565b92505081905550343373ffffffffffffffffffffffffffffffffffffffff167f2cde8fb4822495d9efe0e5fa111675f127ce41e30c80620d46cc1a606ab0384760405160405180910390a3565b6000600154905090565b60006007600084815260200190815260200160002060009054906101000a900473ffffffffffffffffffffffffffffffffffffffff16905060007f00000000000000000000000000000000000000000000000000000000000000008360008151811061174a57611749611d2c565b5b602002602001015161175c9190611f3e565b905060018161176b9190611c5e565b600660008473ffffffffffffffffffffffffffffffffffffffff1673ffffffffffffffffffffffffffffffffffffffff1681526020019081526020016000208190555050505050565b7f4e487b7100000000000000000000000000000000000000000000000000000000600052602160045260246000fd5b600281106117f4576117f36117b4565b5b50565b6000819050611805826117e3565b919050565b6000611815826117f7565b9050919050565b6118258161180a565b82525050565b6000602082019050611840600083018461181c565b92915050565b6000604051905090565b600080fd5b600080fd5b6000819050919050565b61186d8161185a565b811461187857600080fd5b50565b60008135905061188a81611864565b92915050565b600080fd5b6000601f19601f8301169050919050565b7f4e487b7100000000000000000000000000000000000000000000000000000000600052604160045260246000fd5b6118de82611895565b810181811067ffffffffffffffff821117156118fd576118fc6118a6565b5b80604052505050565b6000611910611846565b905061191c82826118d5565b919050565b600067ffffffffffffffff82111561193c5761193b6118a6565b5b602082029050602081019050919050565b600080fd5b600061196561196084611921565b611906565b905080838252602082019050602084028301858111156119885761198761194d565b5b835b818110156119b1578061199d888261187b565b84526020840193505060208101905061198a565b5050509392505050565b600082601f8301126119d0576119cf611890565b5b81356119e0848260208601611952565b91505092915050565b60008060408385031215611a00576119ff611850565b5b6000611a0e8582860161187b565b925050602083013567ffffffffffffffff811115611a2f57611a2e611855565b5b611a3b858286016119bb565b9150509250929050565b611a4e8161185a565b82525050565b6000602082019050611a696000830184611a45565b92915050565b600073ffffffffffffffffffffffffffffffffffffffff82169050919050565b6000611a9a82611a6f565b9050919050565b611aaa81611a8f565b82525050565b6000602082019050611ac56000830184611aa1565b92915050565b611ad481611a8f565b8114611adf57600080fd5b50565b600081359050611af181611acb565b92915050565b600060208284031215611b0d57611b0c611850565b5b6000611b1b84828501611ae2565b91505092915050565b600060208284031215611b3a57611b39611850565b5b6000611b488482850161187b565b91505092915050565b60008115159050919050565b611b6681611b51565b82525050565b6000602082019050611b816000830184611b5d565b92915050565b600080fd5b60008083601f840112611ba257611ba1611890565b5b8235905067ffffffffffffffff811115611bbf57611bbe611b87565b5b602083019150836001820283011115611bdb57611bda61194d565b5b9250929050565b60008060208385031215611bf957611bf8611850565b5b600083013567ffffffffffffffff811115611c1757611c16611855565b5b611c2385828601611b8c565b92509250509250929050565b7f4e487b7100000000000000000000000000000000000000000000000000000000600052601160045260246000fd5b6000611c698261185a565b9150611c748361185a565b9250828201905080821115611c8c57611c8b611c2f565b5b92915050565b6000604082019050611ca76000830185611aa1565b611cb46020830184611aa1565b9392505050565b6000611cc68261185a565b91507fffffffffffffffffffffffffffffffffffffffffffffffffffffffffffffffff8203611cf857611cf7611c2f565b5b600182019050919050565b6000611d0e8261185a565b915060008203611d2157611d20611c2f565b5b600182039050919050565b7f4e487b7100000000000000000000000000000000000000000000000000000000600052603260045260246000fd5b6000611d668261185a565b9150611d718361185a565b9250828202611d7f8161185a565b91508282048414831517611d9657611d95611c2f565b5b5092915050565b6000611da88261185a565b9150611db38361185a565b9250828203905081811115611dcb57611dca611c2f565b5b92915050565b7f4e487b7100000000000000000000000000000000000000000000000000000000600052601260045260246000fd5b6000611e0b8261185a565b9150611e168361185a565b925082611e2657611e25611dd1565b5b828204905092915050565b6000819050919050565b611e4481611e31565b82525050565b600067ffffffffffffffff82169050919050565b611e6781611e4a565b82525050565b600061ffff82169050919050565b611e8481611e6d565b82525050565b600063ffffffff82169050919050565b611ea381611e8a565b82525050565b600060a082019050611ebe6000830188611e3b565b611ecb6020830187611e5e565b611ed86040830186611e7b565b611ee56060830185611e9a565b611ef26080830184611e9a565b9695505050505050565b600081519050611f0b81611864565b92915050565b600060208284031215611f2757611f26611850565b5b6000611f3584828501611efc565b91505092915050565b6000611f498261185a565b9150611f548361185a565b925082611f6457611f63611dd1565b5b82820690509291505056fea2646970667358221220becd181d70c6dae3e9ac417738e2b568588f6264e361c2e611d0b14533c906eb64736f6c63430008120033",
  "linkReferences": {},
  "deployedLinkReferences": {}
}