{
  "_format": "hh-sol-artifact-1",
  "contractName": "SendEth",
  "sourceName": "contracts/SendEth.sol",
  "abi": [
    {
      "inputs": [],
      "name": "SendEth__NotEnough",
      "type": "error"
    },
    {
      "anonymous": false,
      "inputs": [
        {
          "indexed": true,
          "internalType": "address",
          "name": "sender",
          "type": "address"
        },
        {
          "indexed": true,
          "internalType": "string",
          "name": "recipientId",
          "type": "string"
        },
        {
          "indexed": false,
          "internalType": "uint256",
          "name": "amount",
          "type": "uint256"
        }
      ],
      "name": "EthSent",
      "type": "event"
    },
    {
      "anonymous": false,
      "inputs": [
        {
          "indexed": false,
          "internalType": "string",
          "name": "recipientId",
          "type": "string"
        },
        {
          "indexed": false,
          "internalType": "uint256",
          "name": "amount",
          "type": "uint256"
        }
      ],
      "name": "EthWithdrawn",
      "type": "event"
    },
    {
      "inputs": [
        {
          "internalType": "string[]",
          "name": "recipientIds",
          "type": "string[]"
        }
      ],
      "name": "sendEth",
      "outputs": [],
      "stateMutability": "payable",
      "type": "function"
    },
    {
      "inputs": [
        {
          "internalType": "string",
          "name": "recipientId",
          "type": "string"
        }
      ],
      "name": "withdrawEth",
      "outputs": [],
      "stateMutability": "nonpayable",
      "type": "function"
    }
  ],
  "bytecode": "0x608060405234801561001057600080fd5b506108bc806100206000396000f3fe6080604052600436106100295760003560e01c80638f0b9fe41461002e578063ef3b73151461004a575b600080fd5b61004860048036038101906100439190610518565b610073565b005b34801561005657600080fd5b50610071600480360381019061006c9190610561565b6101af565b005b600034116100ad576040517f1de7d3d500000000000000000000000000000000000000000000000000000000815260040160405180910390fd5b60008151346100bc9190610612565b905060005b82518110156101aa578160008483815181106100e0576100df610643565b5b60200260200101516040516100f591906106e3565b9081526020016040518091039020600082825461011291906106fa565b9250508190555082818151811061012c5761012b610643565b5b602002602001015160405161014191906106e3565b60405180910390203373ffffffffffffffffffffffffffffffffffffffff167f0845cac9ce37f41d707588bc446268f3cffe90a2dafbdd6ed719505b6b02b4ef8460405161018f919061073d565b60405180910390a380806101a290610758565b9150506100c1565b505050565b600080826040516101c091906106e3565b9081526020016040518091039020541161020f576040517f08c379a0000000000000000000000000000000000000000000000000000000008152600401610206906107fd565b60405180910390fd5b6000808260405161022091906106e3565b90815260200160405180910390205490506000808360405161024291906106e3565b9081526020016040518091039020819055503373ffffffffffffffffffffffffffffffffffffffff166108fc829081150290604051600060405180830381858888f1935050505015801561029a573d6000803e3d6000fd5b507f43c1710a8ab93b9788e9b30f14c8c1df1912b72b513c80546d7d34c3cfc14ed982826040516102cc929190610856565b60405180910390a15050565b6000604051905090565b600080fd5b600080fd5b600080fd5b6000601f19601f8301169050919050565b7f4e487b7100000000000000000000000000000000000000000000000000000000600052604160045260246000fd5b61033a826102f1565b810181811067ffffffffffffffff8211171561035957610358610302565b5b80604052505050565b600061036c6102d8565b90506103788282610331565b919050565b600067ffffffffffffffff82111561039857610397610302565b5b602082029050602081019050919050565b600080fd5b600080fd5b600067ffffffffffffffff8211156103ce576103cd610302565b5b6103d7826102f1565b9050602081019050919050565b82818337600083830152505050565b6000610406610401846103b3565b610362565b905082815260208101848484011115610422576104216103ae565b5b61042d8482856103e4565b509392505050565b600082601f83011261044a576104496102ec565b5b813561045a8482602086016103f3565b91505092915050565b60006104766104718461037d565b610362565b90508083825260208201905060208402830185811115610499576104986103a9565b5b835b818110156104e057803567ffffffffffffffff8111156104be576104bd6102ec565b5b8086016104cb8982610435565b8552602085019450505060208101905061049b565b5050509392505050565b600082601f8301126104ff576104fe6102ec565b5b813561050f848260208601610463565b91505092915050565b60006020828403121561052e5761052d6102e2565b5b600082013567ffffffffffffffff81111561054c5761054b6102e7565b5b610558848285016104ea565b91505092915050565b600060208284031215610577576105766102e2565b5b600082013567ffffffffffffffff811115610595576105946102e7565b5b6105a184828501610435565b91505092915050565b6000819050919050565b7f4e487b7100000000000000000000000000000000000000000000000000000000600052601260045260246000fd5b7f4e487b7100000000000000000000000000000000000000000000000000000000600052601160045260246000fd5b600061061d826105aa565b9150610628836105aa565b925082610638576106376105b4565b5b828204905092915050565b7f4e487b7100000000000000000000000000000000000000000000000000000000600052603260045260246000fd5b600081519050919050565b600081905092915050565b60005b838110156106a657808201518184015260208101905061068b565b60008484015250505050565b60006106bd82610672565b6106c7818561067d565b93506106d7818560208601610688565b80840191505092915050565b60006106ef82846106b2565b915081905092915050565b6000610705826105aa565b9150610710836105aa565b9250828201905080821115610728576107276105e3565b5b92915050565b610737816105aa565b82525050565b6000602082019050610752600083018461072e565b92915050565b6000610763826105aa565b91507fffffffffffffffffffffffffffffffffffffffffffffffffffffffffffffffff8203610795576107946105e3565b5b600182019050919050565b600082825260208201905092915050565b7f4e6f2062616c616e636520746f20776974686472617700000000000000000000600082015250565b60006107e76016836107a0565b91506107f2826107b1565b602082019050919050565b60006020820190508181036000830152610816816107da565b9050919050565b600061082882610672565b61083281856107a0565b9350610842818560208601610688565b61084b816102f1565b840191505092915050565b60006040820190508181036000830152610870818561081d565b905061087f602083018461072e565b939250505056fea2646970667358221220fa8f64f6e442dde11277ed15a366888441bedcebe7950f9cdfc500dad062d71e64736f6c63430008120033",
  "linkReferences": {},
  "deployedLinkReferences": {}
}