{
  "address": "0xCf7Ed3AccA5a467e9e704C703E8D87F634fB0Fc9",
  "abi": [
    {
      "inputs": [
        {
          "internalType": "address",
          "name": "vrfCoordinatorV2",
          "type": "address"
        },
        {
          "internalType": "bytes32",
          "name": "gasLane",
          "type": "bytes32"
        },
        {
          "internalType": "uint64",
          "name": "subscriptionId",
          "type": "uint64"
        },
        {
          "internalType": "uint32",
          "name": "callbackGasLimit",
          "type": "uint32"
        },
        {
          "internalType": "uint64",
          "name": "leastEthToSend",
          "type": "uint64"
        },
        {
          "internalType": "uint256",
          "name": "randomNumberRange",
          "type": "uint256"
        },
        {
          "internalType": "uint256",
          "name": "numberOfTrials",
          "type": "uint256"
        }
      ],
      "stateMutability": "payable",
      "type": "constructor"
    },
    {
      "inputs": [],
      "name": "Guess_GameGotNoMoney",
      "type": "error"
    },
    {
      "inputs": [],
      "name": "Guess_GameStartedAlready",
      "type": "error"
    },
    {
      "inputs": [],
      "name": "Guess__FundYourWalletPlease",
      "type": "error"
    },
    {
      "inputs": [],
      "name": "Guess__GameFundFailedSendEnough",
      "type": "error"
    },
    {
      "inputs": [],
      "name": "Guess__GameHasStartedYouCannotChecktheLuckyNumber",
      "type": "error"
    },
    {
      "inputs": [],
      "name": "Guess__NoBalanceToWithdraw",
      "type": "error"
    },
    {
      "inputs": [],
      "name": "Guess__NotEnoughEthEntered",
      "type": "error"
    },
    {
      "inputs": [],
      "name": "Guess__PleaseStartANewGameYouLostTheGameAlready",
      "type": "error"
    },
    {
      "inputs": [],
      "name": "Guess__WalletFundFailedSendEnough",
      "type": "error"
    },
    {
      "inputs": [
        {
          "internalType": "address",
          "name": "have",
          "type": "address"
        },
        {
          "internalType": "address",
          "name": "want",
          "type": "address"
        }
      ],
      "name": "OnlyCoordinatorCanFulfill",
      "type": "error"
    },
    {
      "anonymous": false,
      "inputs": [
        {
          "indexed": true,
          "internalType": "address",
          "name": "owner",
          "type": "address"
        },
        {
          "indexed": true,
          "internalType": "uint256",
          "name": "amountOwnerFunded",
          "type": "uint256"
        }
      ],
      "name": "GameFunded",
      "type": "event"
    },
    {
      "anonymous": false,
      "inputs": [
        {
          "indexed": true,
          "internalType": "address",
          "name": "gamer",
          "type": "address"
        },
        {
          "indexed": true,
          "internalType": "uint256",
          "name": "amountGamerFunded",
          "type": "uint256"
        }
      ],
      "name": "GamerWalletFunded",
      "type": "event"
    },
    {
      "anonymous": false,
      "inputs": [
        {
          "indexed": true,
          "internalType": "uint256",
          "name": "requestId",
          "type": "uint256"
        }
      ],
      "name": "RequestRaffleWinner",
      "type": "event"
    },
    {
      "anonymous": false,
      "inputs": [
        {
          "indexed": true,
          "internalType": "address",
          "name": "gamer",
          "type": "address"
        },
        {
          "indexed": true,
          "internalType": "uint256",
          "name": "amountWithdrawn",
          "type": "uint256"
        }
      ],
      "name": "WalletFundsWithdrawn",
      "type": "event"
    },
    {
      "stateMutability": "payable",
      "type": "fallback"
    },
    {
      "inputs": [],
      "name": "DonateToGame",
      "outputs": [],
      "stateMutability": "payable",
      "type": "function"
    },
    {
      "inputs": [
        {
          "internalType": "uint256",
          "name": "",
          "type": "uint256"
        }
      ],
      "name": "allTimeLosers",
      "outputs": [
        {
          "internalType": "address",
          "name": "",
          "type": "address"
        }
      ],
      "stateMutability": "view",
      "type": "function"
    },
    {
      "inputs": [
        {
          "internalType": "uint256",
          "name": "",
          "type": "uint256"
        }
      ],
      "name": "allTimeWinners",
      "outputs": [
        {
          "internalType": "address",
          "name": "",
          "type": "address"
        }
      ],
      "stateMutability": "view",
      "type": "function"
    },
    {
      "inputs": [],
      "name": "fundGameWallet",
      "outputs": [],
      "stateMutability": "payable",
      "type": "function"
    },
    {
      "inputs": [
        {
          "internalType": "address",
          "name": "",
          "type": "address"
        }
      ],
      "name": "gamersWalletBalance",
      "outputs": [
        {
          "internalType": "uint256",
          "name": "",
          "type": "uint256"
        }
      ],
      "stateMutability": "view",
      "type": "function"
    },
    {
      "inputs": [],
      "name": "getCallCount",
      "outputs": [
        {
          "internalType": "uint256",
          "name": "",
          "type": "uint256"
        }
      ],
      "stateMutability": "view",
      "type": "function"
    },
    {
      "inputs": [],
      "name": "getGameBalance",
      "outputs": [
        {
          "internalType": "uint256",
          "name": "",
          "type": "uint256"
        }
      ],
      "stateMutability": "view",
      "type": "function"
    },
    {
      "inputs": [],
      "name": "getGamersWalletBalance",
      "outputs": [
        {
          "internalType": "uint256",
          "name": "",
          "type": "uint256"
        }
      ],
      "stateMutability": "view",
      "type": "function"
    },
    {
      "inputs": [],
      "name": "getLuckyNumber",
      "outputs": [
        {
          "internalType": "uint256",
          "name": "",
          "type": "uint256"
        }
      ],
      "stateMutability": "view",
      "type": "function"
    },
    {
      "inputs": [],
      "name": "getMyGameState",
      "outputs": [
        {
          "internalType": "enum Guess.playerGameState",
          "name": "",
          "type": "uint8"
        }
      ],
      "stateMutability": "view",
      "type": "function"
    },
    {
      "inputs": [],
      "name": "getNumberOfTrials",
      "outputs": [
        {
          "internalType": "uint256",
          "name": "",
          "type": "uint256"
        }
      ],
      "stateMutability": "view",
      "type": "function"
    },
    {
      "inputs": [],
      "name": "getNumberOfTrialsUsed",
      "outputs": [
        {
          "internalType": "uint256",
          "name": "",
          "type": "uint256"
        }
      ],
      "stateMutability": "view",
      "type": "function"
    },
    {
      "inputs": [],
      "name": "getOwner",
      "outputs": [
        {
          "internalType": "address",
          "name": "",
          "type": "address"
        }
      ],
      "stateMutability": "view",
      "type": "function"
    },
    {
      "inputs": [],
      "name": "getstartGameValue",
      "outputs": [
        {
          "internalType": "uint256",
          "name": "",
          "type": "uint256"
        }
      ],
      "stateMutability": "view",
      "type": "function"
    },
    {
      "inputs": [
        {
          "internalType": "uint256",
          "name": "requestId",
          "type": "uint256"
        },
        {
          "internalType": "uint256[]",
          "name": "randomWords",
          "type": "uint256[]"
        }
      ],
      "name": "rawFulfillRandomWords",
      "outputs": [],
      "stateMutability": "nonpayable",
      "type": "function"
    },
    {
      "inputs": [
        {
          "internalType": "bytes",
          "name": "",
          "type": "bytes"
        }
      ],
      "name": "startGame",
      "outputs": [],
      "stateMutability": "payable",
      "type": "function"
    },
    {
      "inputs": [
        {
          "internalType": "uint256",
          "name": "randomNumber",
          "type": "uint256"
        }
      ],
      "name": "verifyRandomNumber",
      "outputs": [
        {
          "internalType": "bool",
          "name": "",
          "type": "bool"
        }
      ],
      "stateMutability": "nonpayable",
      "type": "function"
    },
    {
      "inputs": [],
      "name": "withdrawWalletFunds",
      "outputs": [],
      "stateMutability": "nonpayable",
      "type": "function"
    },
    {
      "stateMutability": "payable",
      "type": "receive"
    }
  ],
  "transactionHash": "0xc1888885aa79a04954b13d43f775440a0afda1c6af0461e19bf60605debce549",
  "args": [
    "0x5FbDB2315678afecb367f032d93F642f64180aa3",
    "0x474e34a077df58807dbe9c96d3c009b23b3c6d0cce433e59bbf5b34f823bc56c",
    "1",
    "500000",
    "100000000000000000",
    "10",
    "3"
  ],
  "numDeployments": 1,
  "solcInputHash": "037095a7f3a4ae96a3b5aee9544e4377",
  "bytecode": "0x61016060405260036000806101000a81548161ffff021916908361ffff1602179055506001600060026101000a81548163ffffffff021916908363ffffffff1602179055506040516200236c3803806200236c833981810160405281019062000069919062000339565b868073ffffffffffffffffffffffffffffffffffffffff1660808173ffffffffffffffffffffffffffffffffffffffff16815250505060003411620000da576040517f0f87291600000000000000000000000000000000000000000000000000000000815260040160405180910390fd5b8673ffffffffffffffffffffffffffffffffffffffff1660a08173ffffffffffffffffffffffffffffffffffffffff16815250508560c081815250508467ffffffffffffffff1660e08167ffffffffffffffff16815250508363ffffffff166101008163ffffffff16815250508267ffffffffffffffff16610120818152505033600060066101000a81548173ffffffffffffffffffffffffffffffffffffffff021916908373ffffffffffffffffffffffffffffffffffffffff160217905550816101408181525050806001819055503460026000828254620001bf91906200041b565b925050819055505050505050505062000456565b600080fd5b600073ffffffffffffffffffffffffffffffffffffffff82169050919050565b60006200020582620001d8565b9050919050565b6200021781620001f8565b81146200022357600080fd5b50565b60008151905062000237816200020c565b92915050565b6000819050919050565b62000252816200023d565b81146200025e57600080fd5b50565b600081519050620002728162000247565b92915050565b600067ffffffffffffffff82169050919050565b620002978162000278565b8114620002a357600080fd5b50565b600081519050620002b7816200028c565b92915050565b600063ffffffff82169050919050565b620002d881620002bd565b8114620002e457600080fd5b50565b600081519050620002f881620002cd565b92915050565b6000819050919050565b6200031381620002fe565b81146200031f57600080fd5b50565b600081519050620003338162000308565b92915050565b600080600080600080600060e0888a0312156200035b576200035a620001d3565b5b60006200036b8a828b0162000226565b97505060206200037e8a828b0162000261565b9650506040620003918a828b01620002a6565b9550506060620003a48a828b01620002e7565b9450506080620003b78a828b01620002a6565b93505060a0620003ca8a828b0162000322565b92505060c0620003dd8a828b0162000322565b91505092959891949750929550565b7f4e487b7100000000000000000000000000000000000000000000000000000000600052601160045260246000fd5b60006200042882620002fe565b91506200043583620002fe565b925082820190508082111562000450576200044f620003ec565b5b92915050565b60805160a05160c05160e051610100516101205161014051611eb4620004b8600039600061163201526000610ef9015260006112cc0152600061129c0152600061127b0152600061123f01526000818161065201526106a60152611eb46000f3fe60806040526004361061010d5760003560e01c8063a96b2dc011610095578063dc2ac12911610064578063dc2ac12914610354578063e69f19cd14610370578063e899466f1461039b578063f2d8dda3146103a5578063fc90eaac146103e25761011c565b8063a96b2dc014610296578063aa488d7e146102c1578063ba5cf4b6146102fe578063c574d156146103295761011c565b806322112ede116100dc57806322112ede1461019b57806324662e25146101d85780637b9dda5114610203578063893d20e81461022e578063902e6dab146102595761011c565b80630fe5155b146101265780631cd9ad9b146101515780631fb3bc631461015b5780631fe543e3146101725761011c565b3661011c5761011a61040d565b005b61012461040d565b005b34801561013257600080fd5b5061013b61046c565b604051610148919061173a565b60405180910390f35b61015961040d565b005b34801561016757600080fd5b506101706104c0565b005b34801561017e57600080fd5b50610199600480360381019061019491906118f8565b610650565b005b3480156101a757600080fd5b506101c260048036038101906101bd9190611954565b610710565b6040516101cf91906119c2565b60405180910390f35b3480156101e457600080fd5b506101ed61074f565b6040516101fa91906119ec565b60405180910390f35b34801561020f57600080fd5b50610218610796565b60405161022591906119ec565b60405180910390f35b34801561023a57600080fd5b506102436107dd565b60405161025091906119c2565b60405180910390f35b34801561026557600080fd5b50610280600480360381019061027b9190611a33565b610806565b60405161028d91906119ec565b60405180910390f35b3480156102a257600080fd5b506102ab61081e565b6040516102b891906119ec565b60405180910390f35b3480156102cd57600080fd5b506102e860048036038101906102e39190611954565b610865565b6040516102f59190611a7b565b60405180910390f35b34801561030a57600080fd5b50610313610ea6565b60405161032091906119ec565b60405180910390f35b34801561033557600080fd5b5061033e610eed565b60405161034b91906119ec565b60405180910390f35b61036e60048036038101906103699190611af1565b610ef7565b005b34801561037c57600080fd5b506103856113e7565b60405161039291906119ec565b60405180910390f35b6103a36114d7565b005b3480156103b157600080fd5b506103cc60048036038101906103c79190611954565b6115ad565b6040516103d991906119c2565b60405180910390f35b3480156103ee57600080fd5b506103f76115ec565b60405161040491906119ec565b60405180910390f35b346002600082825461041f9190611b6d565b92505081905550343373ffffffffffffffffffffffffffffffffffffffff167f5c963fd7fde519af29d56159e6e3e18db4e5d3e4716c39c87958cf9e4862ed5860405160405180910390a3565b6000600860003373ffffffffffffffffffffffffffffffffffffffff1673ffffffffffffffffffffffffffffffffffffffff16815260200190815260200160002060009054906101000a900460ff16905090565b6000600360003373ffffffffffffffffffffffffffffffffffffffff1673ffffffffffffffffffffffffffffffffffffffff1681526020019081526020016000205411610539576040517f644d533400000000000000000000000000000000000000000000000000000000815260040160405180910390fd5b6000600360003373ffffffffffffffffffffffffffffffffffffffff1673ffffffffffffffffffffffffffffffffffffffff1681526020019081526020016000205490506000600360003373ffffffffffffffffffffffffffffffffffffffff1673ffffffffffffffffffffffffffffffffffffffff168152602001908152602001600020819055503373ffffffffffffffffffffffffffffffffffffffff166108fc829081150290604051600060405180830381858888f19350505050158015610608573d6000803e3d6000fd5b50803373ffffffffffffffffffffffffffffffffffffffff167fd8983cf18affd47d2b124228c0ed45ba546e64e3df3ba503ae24917cc9fa80f360405160405180910390a350565b7f000000000000000000000000000000000000000000000000000000000000000073ffffffffffffffffffffffffffffffffffffffff163373ffffffffffffffffffffffffffffffffffffffff161461070257337f00000000000000000000000000000000000000000000000000000000000000006040517f1cf993f40000000000000000000000000000000000000000000000000000000081526004016106f9929190611ba1565b60405180910390fd5b61070c82826115f6565b5050565b600b818154811061072057600080fd5b906000526020600020016000915054906101000a900473ffffffffffffffffffffffffffffffffffffffff1681565b6000600960003373ffffffffffffffffffffffffffffffffffffffff1673ffffffffffffffffffffffffffffffffffffffff16815260200190815260200160002054905090565b6000600560003373ffffffffffffffffffffffffffffffffffffffff1673ffffffffffffffffffffffffffffffffffffffff16815260200190815260200160002054905090565b60008060069054906101000a900473ffffffffffffffffffffffffffffffffffffffff16905090565b60036020528060005260406000206000915090505481565b6000600460003373ffffffffffffffffffffffffffffffffffffffff1673ffffffffffffffffffffffffffffffffffffffff16815260200190815260200160002054905090565b600080600181111561087a576108796116c3565b5b600860003373ffffffffffffffffffffffffffffffffffffffff1673ffffffffffffffffffffffffffffffffffffffff16815260200190815260200160002060009054906101000a900460ff1660018111156108d9576108d86116c3565b5b03610910576040517f509360dd00000000000000000000000000000000000000000000000000000000815260040160405180910390fd5b600460003373ffffffffffffffffffffffffffffffffffffffff1673ffffffffffffffffffffffffffffffffffffffff168152602001908152602001600020600081548092919061096090611bca565b9190505550600960003373ffffffffffffffffffffffffffffffffffffffff1673ffffffffffffffffffffffffffffffffffffffff16815260200190815260200160002060008154809291906109b590611c12565b91905055506000600660003373ffffffffffffffffffffffffffffffffffffffff1673ffffffffffffffffffffffffffffffffffffffff16815260200190815260200160002054831490508015610c2c576000600860003373ffffffffffffffffffffffffffffffffffffffff1673ffffffffffffffffffffffffffffffffffffffff16815260200190815260200160002060006101000a81548160ff02191690836001811115610a6957610a686116c3565b5b02179055506000600560003373ffffffffffffffffffffffffffffffffffffffff1673ffffffffffffffffffffffffffffffffffffffff1681526020019081526020016000205490506000600560003373ffffffffffffffffffffffffffffffffffffffff1673ffffffffffffffffffffffffffffffffffffffff168152602001908152602001600020819055506000600460003373ffffffffffffffffffffffffffffffffffffffff1673ffffffffffffffffffffffffffffffffffffffff16815260200190815260200160002081905550600a339080600181540180825580915050600190039060005260206000200160009091909190916101000a81548173ffffffffffffffffffffffffffffffffffffffff021916908373ffffffffffffffffffffffffffffffffffffffff160217905550600281610bac9190611c3b565b600360003373ffffffffffffffffffffffffffffffffffffffff1673ffffffffffffffffffffffffffffffffffffffff1681526020019081526020016000206000828254610bfa9190611b6d565b92505081905550600281610c0e9190611c3b565b60026000828254610c1f9190611c7d565b9250508190555050610e9d565b80610e9c57600154600460003373ffffffffffffffffffffffffffffffffffffffff1673ffffffffffffffffffffffffffffffffffffffff1681526020019081526020016000205403610e9b576000600860003373ffffffffffffffffffffffffffffffffffffffff1673ffffffffffffffffffffffffffffffffffffffff16815260200190815260200160002060006101000a81548160ff02191690836001811115610cdc57610cdb6116c3565b5b02179055506000600560003373ffffffffffffffffffffffffffffffffffffffff1673ffffffffffffffffffffffffffffffffffffffff1681526020019081526020016000205490506000600560003373ffffffffffffffffffffffffffffffffffffffff1673ffffffffffffffffffffffffffffffffffffffff168152602001908152602001600020819055506000600460003373ffffffffffffffffffffffffffffffffffffffff1673ffffffffffffffffffffffffffffffffffffffff16815260200190815260200160002081905550600b339080600181540180825580915050600190039060005260206000200160009091909190916101000a81548173ffffffffffffffffffffffffffffffffffffffff021916908373ffffffffffffffffffffffffffffffffffffffff160217905550600281610e1f9190611ce0565b600360003373ffffffffffffffffffffffffffffffffffffffff1673ffffffffffffffffffffffffffffffffffffffff1681526020019081526020016000206000828254610e6d9190611b6d565b92505081905550600281610e819190611ce0565b60026000828254610e929190611c7d565b92505081905550505b5b5b80915050919050565b6000600360003373ffffffffffffffffffffffffffffffffffffffff1673ffffffffffffffffffffffffffffffffffffffff16815260200190815260200160002054905090565b6000600254905090565b7f0000000000000000000000000000000000000000000000000000000000000000341015610f51576040517f7336562800000000000000000000000000000000000000000000000000000000815260040160405180910390fd5b600360003373ffffffffffffffffffffffffffffffffffffffff1673ffffffffffffffffffffffffffffffffffffffff16815260200190815260200160002054341115610fca576040517fe79d7a4e00000000000000000000000000000000000000000000000000000000815260040160405180910390fd5b60006002541480610fe85750600234610fe39190611c3b565b600254105b1561101f576040517f321aa5b000000000000000000000000000000000000000000000000000000000815260040160405180910390fd5b600180811115611032576110316116c3565b5b600860003373ffffffffffffffffffffffffffffffffffffffff1673ffffffffffffffffffffffffffffffffffffffff16815260200190815260200160002060009054906101000a900460ff166001811115611091576110906116c3565b5b036110c8576040517f2ab870bb00000000000000000000000000000000000000000000000000000000815260040160405180910390fd5b600154600960003373ffffffffffffffffffffffffffffffffffffffff1673ffffffffffffffffffffffffffffffffffffffff168152602001908152602001600020819055506001600860003373ffffffffffffffffffffffffffffffffffffffff1673ffffffffffffffffffffffffffffffffffffffff16815260200190815260200160002060006101000a81548160ff02191690836001811115611171576111706116c3565b5b021790555034600360003373ffffffffffffffffffffffffffffffffffffffff1673ffffffffffffffffffffffffffffffffffffffff16815260200190815260200160002060008282546111c59190611c7d565b9250508190555034600260008282546111de9190611b6d565b9250508190555034600560003373ffffffffffffffffffffffffffffffffffffffff1673ffffffffffffffffffffffffffffffffffffffff16815260200190815260200160002060008282546112349190611b6d565b9250508190555060007f000000000000000000000000000000000000000000000000000000000000000073ffffffffffffffffffffffffffffffffffffffff16635d3b1d307f00000000000000000000000000000000000000000000000000000000000000007f000000000000000000000000000000000000000000000000000000000000000060008054906101000a900461ffff167f0000000000000000000000000000000000000000000000000000000000000000600060029054906101000a900463ffffffff166040518663ffffffff1660e01b815260040161131e959493929190611d89565b6020604051808303816000875af115801561133d573d6000803e3d6000fd5b505050506040513d601f19601f820116820180604052508101906113619190611df1565b9050336007600083815260200190815260200160002060006101000a81548173ffffffffffffffffffffffffffffffffffffffff021916908373ffffffffffffffffffffffffffffffffffffffff160217905550807fde6349b018d6c03d837b67d9a198a6ba4842546f2295fe963fae141e5dbaef8160405160405180910390a2505050565b60006001808111156113fc576113fb6116c3565b5b600860003373ffffffffffffffffffffffffffffffffffffffff1673ffffffffffffffffffffffffffffffffffffffff16815260200190815260200160002060009054906101000a900460ff16600181111561145b5761145a6116c3565b5b03611492576040517fbd4c46c200000000000000000000000000000000000000000000000000000000815260040160405180910390fd5b600660003373ffffffffffffffffffffffffffffffffffffffff1673ffffffffffffffffffffffffffffffffffffffff16815260200190815260200160002054905090565b60003411611511576040517fbf6fa0fa00000000000000000000000000000000000000000000000000000000815260040160405180910390fd5b34600360003373ffffffffffffffffffffffffffffffffffffffff1673ffffffffffffffffffffffffffffffffffffffff16815260200190815260200160002060008282546115609190611b6d565b92505081905550343373ffffffffffffffffffffffffffffffffffffffff167f2cde8fb4822495d9efe0e5fa111675f127ce41e30c80620d46cc1a606ab0384760405160405180910390a3565b600a81815481106115bd57600080fd5b906000526020600020016000915054906101000a900473ffffffffffffffffffffffffffffffffffffffff1681565b6000600154905090565b60006007600084815260200190815260200160002060009054906101000a900473ffffffffffffffffffffffffffffffffffffffff16905060007f00000000000000000000000000000000000000000000000000000000000000008360008151811061166557611664611e1e565b5b60200260200101516116779190611e4d565b905080600660008473ffffffffffffffffffffffffffffffffffffffff1673ffffffffffffffffffffffffffffffffffffffff1681526020019081526020016000208190555050505050565b7f4e487b7100000000000000000000000000000000000000000000000000000000600052602160045260246000fd5b60028110611703576117026116c3565b5b50565b6000819050611714826116f2565b919050565b600061172482611706565b9050919050565b61173481611719565b82525050565b600060208201905061174f600083018461172b565b92915050565b6000604051905090565b600080fd5b600080fd5b6000819050919050565b61177c81611769565b811461178757600080fd5b50565b60008135905061179981611773565b92915050565b600080fd5b6000601f19601f8301169050919050565b7f4e487b7100000000000000000000000000000000000000000000000000000000600052604160045260246000fd5b6117ed826117a4565b810181811067ffffffffffffffff8211171561180c5761180b6117b5565b5b80604052505050565b600061181f611755565b905061182b82826117e4565b919050565b600067ffffffffffffffff82111561184b5761184a6117b5565b5b602082029050602081019050919050565b600080fd5b600061187461186f84611830565b611815565b905080838252602082019050602084028301858111156118975761189661185c565b5b835b818110156118c057806118ac888261178a565b845260208401935050602081019050611899565b5050509392505050565b600082601f8301126118df576118de61179f565b5b81356118ef848260208601611861565b91505092915050565b6000806040838503121561190f5761190e61175f565b5b600061191d8582860161178a565b925050602083013567ffffffffffffffff81111561193e5761193d611764565b5b61194a858286016118ca565b9150509250929050565b60006020828403121561196a5761196961175f565b5b60006119788482850161178a565b91505092915050565b600073ffffffffffffffffffffffffffffffffffffffff82169050919050565b60006119ac82611981565b9050919050565b6119bc816119a1565b82525050565b60006020820190506119d760008301846119b3565b92915050565b6119e681611769565b82525050565b6000602082019050611a0160008301846119dd565b92915050565b611a10816119a1565b8114611a1b57600080fd5b50565b600081359050611a2d81611a07565b92915050565b600060208284031215611a4957611a4861175f565b5b6000611a5784828501611a1e565b91505092915050565b60008115159050919050565b611a7581611a60565b82525050565b6000602082019050611a906000830184611a6c565b92915050565b600080fd5b60008083601f840112611ab157611ab061179f565b5b8235905067ffffffffffffffff811115611ace57611acd611a96565b5b602083019150836001820283011115611aea57611ae961185c565b5b9250929050565b60008060208385031215611b0857611b0761175f565b5b600083013567ffffffffffffffff811115611b2657611b25611764565b5b611b3285828601611a9b565b92509250509250929050565b7f4e487b7100000000000000000000000000000000000000000000000000000000600052601160045260246000fd5b6000611b7882611769565b9150611b8383611769565b9250828201905080821115611b9b57611b9a611b3e565b5b92915050565b6000604082019050611bb660008301856119b3565b611bc360208301846119b3565b9392505050565b6000611bd582611769565b91507fffffffffffffffffffffffffffffffffffffffffffffffffffffffffffffffff8203611c0757611c06611b3e565b5b600182019050919050565b6000611c1d82611769565b915060008203611c3057611c2f611b3e565b5b600182039050919050565b6000611c4682611769565b9150611c5183611769565b9250828202611c5f81611769565b91508282048414831517611c7657611c75611b3e565b5b5092915050565b6000611c8882611769565b9150611c9383611769565b9250828203905081811115611cab57611caa611b3e565b5b92915050565b7f4e487b7100000000000000000000000000000000000000000000000000000000600052601260045260246000fd5b6000611ceb82611769565b9150611cf683611769565b925082611d0657611d05611cb1565b5b828204905092915050565b6000819050919050565b611d2481611d11565b82525050565b600067ffffffffffffffff82169050919050565b611d4781611d2a565b82525050565b600061ffff82169050919050565b611d6481611d4d565b82525050565b600063ffffffff82169050919050565b611d8381611d6a565b82525050565b600060a082019050611d9e6000830188611d1b565b611dab6020830187611d3e565b611db86040830186611d5b565b611dc56060830185611d7a565b611dd26080830184611d7a565b9695505050505050565b600081519050611deb81611773565b92915050565b600060208284031215611e0757611e0661175f565b5b6000611e1584828501611ddc565b91505092915050565b7f4e487b7100000000000000000000000000000000000000000000000000000000600052603260045260246000fd5b6000611e5882611769565b9150611e6383611769565b925082611e7357611e72611cb1565b5b82820690509291505056fea264697066735822122071a467930d363704d9faf094112068c1dd5443b97d0855effedc2e939701e8ca64736f6c63430008120033",
  "devdoc": {
    "kind": "dev",
    "methods": {},
    "version": 1
  },
  "userdoc": {
    "kind": "user",
    "methods": {},
    "version": 1
  },
  "storageLayout": {
    "storage": [
      {
        "astId": 196,
        "contract": "contracts/Guess.sol:Guess",
        "label": "REQUEST_CONFIRMATIONS",
        "offset": 0,
        "slot": "0",
        "type": "t_uint16"
      },
      {
        "astId": 199,
        "contract": "contracts/Guess.sol:Guess",
        "label": "NUMWORDS",
        "offset": 2,
        "slot": "0",
        "type": "t_uint32"
      },
      {
        "astId": 201,
        "contract": "contracts/Guess.sol:Guess",
        "label": "owner",
        "offset": 6,
        "slot": "0",
        "type": "t_address"
      },
      {
        "astId": 207,
        "contract": "contracts/Guess.sol:Guess",
        "label": "i_numberOfTrials",
        "offset": 0,
        "slot": "1",
        "type": "t_uint256"
      },
      {
        "astId": 209,
        "contract": "contracts/Guess.sol:Guess",
        "label": "gameBalance",
        "offset": 0,
        "slot": "2",
        "type": "t_uint256"
      },
      {
        "astId": 235,
        "contract": "contracts/Guess.sol:Guess",
        "label": "gamersWalletBalance",
        "offset": 0,
        "slot": "3",
        "type": "t_mapping(t_address,t_uint256)"
      },
      {
        "astId": 239,
        "contract": "contracts/Guess.sol:Guess",
        "label": "callCount",
        "offset": 0,
        "slot": "4",
        "type": "t_mapping(t_address,t_uint256)"
      },
      {
        "astId": 243,
        "contract": "contracts/Guess.sol:Guess",
        "label": "startGameValue",
        "offset": 0,
        "slot": "5",
        "type": "t_mapping(t_address,t_uint256)"
      },
      {
        "astId": 247,
        "contract": "contracts/Guess.sol:Guess",
        "label": "i_luckyNumber",
        "offset": 0,
        "slot": "6",
        "type": "t_mapping(t_address,t_uint256)"
      },
      {
        "astId": 251,
        "contract": "contracts/Guess.sol:Guess",
        "label": "requestIdToAddress",
        "offset": 0,
        "slot": "7",
        "type": "t_mapping(t_uint256,t_address)"
      },
      {
        "astId": 256,
        "contract": "contracts/Guess.sol:Guess",
        "label": "gameState",
        "offset": 0,
        "slot": "8",
        "type": "t_mapping(t_address,t_enum(playerGameState)184)"
      },
      {
        "astId": 260,
        "contract": "contracts/Guess.sol:Guess",
        "label": "numberofTrialsUsed",
        "offset": 0,
        "slot": "9",
        "type": "t_mapping(t_address,t_uint256)"
      },
      {
        "astId": 263,
        "contract": "contracts/Guess.sol:Guess",
        "label": "allTimeWinners",
        "offset": 0,
        "slot": "10",
        "type": "t_array(t_address)dyn_storage"
      },
      {
        "astId": 266,
        "contract": "contracts/Guess.sol:Guess",
        "label": "allTimeLosers",
        "offset": 0,
        "slot": "11",
        "type": "t_array(t_address)dyn_storage"
      }
    ],
    "types": {
      "t_address": {
        "encoding": "inplace",
        "label": "address",
        "numberOfBytes": "20"
      },
      "t_array(t_address)dyn_storage": {
        "base": "t_address",
        "encoding": "dynamic_array",
        "label": "address[]",
        "numberOfBytes": "32"
      },
      "t_enum(playerGameState)184": {
        "encoding": "inplace",
        "label": "enum Guess.playerGameState",
        "numberOfBytes": "1"
      },
      "t_mapping(t_address,t_enum(playerGameState)184)": {
        "encoding": "mapping",
        "key": "t_address",
        "label": "mapping(address => enum Guess.playerGameState)",
        "numberOfBytes": "32",
        "value": "t_enum(playerGameState)184"
      },
      "t_mapping(t_address,t_uint256)": {
        "encoding": "mapping",
        "key": "t_address",
        "label": "mapping(address => uint256)",
        "numberOfBytes": "32",
        "value": "t_uint256"
      },
      "t_mapping(t_uint256,t_address)": {
        "encoding": "mapping",
        "key": "t_uint256",
        "label": "mapping(uint256 => address)",
        "numberOfBytes": "32",
        "value": "t_address"
      },
      "t_uint16": {
        "encoding": "inplace",
        "label": "uint16",
        "numberOfBytes": "2"
      },
      "t_uint256": {
        "encoding": "inplace",
        "label": "uint256",
        "numberOfBytes": "32"
      },
      "t_uint32": {
        "encoding": "inplace",
        "label": "uint32",
        "numberOfBytes": "4"
      }
    }
  }
}